:020000040800F2
:1000000000500020F5140008791400087F1400083F
:10001000851400088B1400089114000800000000EB
:10002000000000000000000000000000971400081D
:10003000A314000800000000AF140008BB1400085F
:100040003D1500083D1500083D1500083D15000848
:100050003D1500083D1500083D150008C7140008AF
:100060003D1500083D1500083D1500083D15000828
:100070003D1500083D1500083D1500083D15000818
:100080003D1500083D1500083D1500083D15000808
:100090003D1500083D1500083D1500083D150008F8
:1000A0003D1500083D1500083D1500083D150008E8
:1000B0003D1500083D1500083D1500083D150008D8
:1000C0003D1500083D1500083D1500083D150008C8
:1000D0003D1500083D150008D51400083D15000821
:1000E0003D1500083D1500083D1500080000000002
:1000F0000000000000000000000000000000000000
:0C01000000000000000000005FF808F1A3
:10010C0010B5054C237833B9044B13B10448AFF345
:10011C0000800123237010BD180000200000000097
:10012C00A044000808B5034B1BB103490348AFF3C7
:10013C00008008BD000000001C000020A044000846
:10014C0080B483B000AF03460A46FB801346BB80E5
:10015C00FA88BB8813440F2B01DCFB8803E0BB88B7
:10016C00C3F110039BB218460C37BD4680BC7047D8
:10017C0080B58EB004AFBA601A460346FB810B46BD
:10018C00BB811346FB800423FB61FB89FB84FA884B
:10019C00BB891344002B00DA0F331B119AB2FB8975
:1001AC0013447B837A8BFB8CD31A9BB201333B8336
:1001BC000023BB8400233B6234E0FA8CFB6902FA17
:1001CC0003F31AB2B7F90C3013431BB2FB82BA8992
:1001DC00FB8811461846FFF7B3FF0346BB82BB8C66
:1001EC00BA681344F98A4FF47A720292BA8A01926D
:1001FC00009302230A4650210F4801F0EFFFFB8CBD
:10020C000133FB840023BB81FA88BB8AD31AFB80A1
:10021C00BA8CBB8A1344BB84052001F0EDF93B6A10
:10022C0001333B623B8B3A6A9A42C6DB00BF00BF8C
:10023C002837BD4680BD00BF5800002080B58EB069
:10024C0004AFBA601A460346FB810B46BB811346CA
:10025C00FB800423FB61FB89FB84FA88BB89134474
:10026C00002B00DA0F331B119AB2FB8913447B83EA
:10027C007A8BFB8CD31A9BB201333B830023BB8458
:10028C0000233B6231E0FA8CFB6902FA03F31AB2E9
:10029C00B7F90C3013431BB2FB82BA89FB881146A9
:1002AC001846FFF74DFF0346BB82BB8CBA6813445C
:1002BC00F98A4FF47A720292BA8A0192009302235D
:1002CC000A4650210D4802F083F8FB8C0133FB8465
:1002DC000023BB81FA88BB8AD31AFB80BA8CBB8AF9
:1002EC001344BB843B6A01333B623B8B3A6A9A42B0
:1002FC00C9DB00BF00BF2837BD4680BD58000020B9
:10030C0080B58CB004AF0346FB800423FB61FA88F4
:10031C00FB6902FA03F37B8307F108031022FF2128
:10032C00184604F08BF87A8B4FF47A7302931023EF
:10033C00019307F10803009302235021044801F0B4
:10034C004DFF052001F058F900BF2037BD4680BD98
:10035C005800002080B584B000AF4AF201033B6026
:10036C0001237B600223BB600223FB603B461946E2
:10037C00224801F025FB40F202433B60204B7B609E
:10038C000223BB603B4619461C4801F019FB4FF495
:10039C00A0433B6000237B600223BB603B461946B5
:1003AC00164801F00DFB4FF480733B6000237B601B
:1003BC000223BB603B461946124801F001FB4FF487
:1003CC00C0633B6001237B600223BB600223FB60A4
:1003DC003B4619460B4801F0F3FA01224FF4C06179
:1003EC00084801F088FC01224FF42041034801F039
:1003FC0082FC00BF1037BD4680BD00BF000C014021
:10040C00000011100008014080B500AF01224FF42C
:10041C000051724801F06FFC00224FF4806170486B
:10042C0001F069FC00224FF400716D4801F063FC8F
:10043C0000224FF40041694801F05DFC4FF480410B
:10044C00664801F041FC0346012B02D1654B1B7839
:10045C00C1E04FF48051614801F036FC0346012B9A
:10046C0002D1604B5B78B6E04FF480715C4801F0D0
:10047C002BFC0346012B02D15A4B9B78ABE000229C
:10048C004FF40051554801F036FC01224FF48061C5
:10049C00534801F030FC00224FF40071504801F039
:1004AC002AFC00224FF400414C4801F024FC4FF48C
:1004BC0080414A4801F008FC0346012B02D1494B0C
:1004CC00DB7888E04FF48051444801F0FDFB034693
:1004DC00012B02D1434B1B797DE04FF480714048D6
:1004EC0001F0F2FB0346012B02D13E4B5B7972E02B
:1004FC0000224FF40051394801F0FDFB00224FF46B
:10050C008061374801F0F7FB01224FF40071344849
:10051C0001F0F1FB00224FF40041304801F0EBFBFD
:10052C004FF480412D4801F0CFFB0346012B02D143
:10053C002C4B9B794FE04FF48051284801F0C4FBC1
:10054C000346012B02D1274BDB7944E04FF4807139
:10055C00234801F0B9FB0346012B02D1214B1B7A36
:10056C0039E000224FF400511C4801F0C4FB00227A
:10057C004FF480611A4801F0BEFB00224FF4007169
:10058C00174801F0B8FB01224FF40041134801F069
:10059C00B2FB4FF48041114801F096FB0346012B4E
:1005AC0002D1104B5B7A16E04FF480510B4801F0EE
:1005BC008BFB0346012B02D10A4B9B7A0BE04FF4C9
:1005CC008071074801F080FB0346012B02D1054BDB
:1005DC00DB7A00E00023184680BD00BF000C014010
:1005EC00000801400000002080B586B002AF034631
:1005FC00FB71FB7923F00F03FB73FB791B01BB73BE
:10060C00FB7B43F00C03DBB23B72FB7B43F0080338
:10061C00DBB27B72BB7B43F00C03DBB2BB72BB7BEC
:10062C0043F00803DBB2FB7207F10802642300936A
:10063C0004237E21034801F0D3FC00BF1037BD46D4
:10064C0080BD00BF5800002080B586B002AF0346C5
:10065C00FB71FB7923F00F03FB73FB791B01BB735D
:10066C00FB7B43F00D03DBB23B72FB7B43F00903D6
:10067C00DBB27B72BB7B43F00D03DBB2BB72BB7B8B
:10068C0043F00903DBB2FB7207F108026423009309
:10069C0004237E21034801F0A3FC00BF1037BD46A4
:1006AC0080BD00BF5800002080B582B000AF802014
:1006BC00FFF79AFF00237B6005E02020FFF7C4FFC3
:1006CC007B6801337B607B68452BF6DD00BF00BF88
:1006DC000837BD4680BD80B582B000AF7860396008
:1006EC007B68002B03D07B68012B05D009E03B68AD
:1006FC0043F080033B6004E03B6843F0C0033B6085
:10070C0000BF3B68DBB21846FFF76EFF00BF08372F
:10071C00BD4680BD80B500AF322000F06DFF3020AB
:10072C00FFF762FF052000F067FF3020FFF75CFF4A
:10073C00012000F061FF3020FFF756FF0A2000F087
:10074C005BFF2020FFF750FF0A2000F055FF282008
:10075C00FFF74AFF012000F04FFF0820FFF744FF8E
:10076C00012000F049FF0120FFF73EFF012000F0BF
:10077C0043FF012000F040FF0620FFF735FF01206A
:10078C0000F03AFF0C20FFF72FFF00BF80BD80B5B3
:10079C0082B000AF786006E07B685A1C7A601B78E8
:1007AC001846FFF751FF7B681B78002BF4D100BF74
:1007BC0000BF0837BD4680BD80B586B000AF7860FD
:1007CC0000237B6125E07B6998B207F10C020A23B8
:1007DC000021FFF733FD00233B6112E03B697A688F
:1007EC0013441A7807F10C013B690B441B789A42AD
:1007FC000BD13B69032B01D101230EE03B69013383
:10080C003B613B69032BE9DD00E000BF7B690133F1
:10081C007B617B69052BD6DD002318461837BD4656
:10082C0080BD000080B58AB000AF78607868FFF7B3
:10083C00C3FF0346012B0ED1FFF736FF002100202A
:10084C00FFF749FF1F48FFF7A2FF4FF4FA7000F0C3
:10085C00D3FE022331E000237B622AE07B6A98B24C
:10086C0007F10C020F230021FFF7E8FC00233B6289
:10087C0017E007F10C023B6A13441B78FF2B14D1D1
:10088C003B6A0F2B0AD17B6AFB61FB6998B204238C
:10089C007A680021FFF76CFC01230EE03B6A013300
:1008AC003B623B6A0F2BE4DD00E000BF7B6A013347
:1008BC007B627B6A052BD1DD002318462837BD46A9
:1008CC0080BD00BFB844000880B586B000AF78602A
:1008DC0000237B612AE07B6998B207F10C020A23A2
:1008EC000021FFF7ABFC00233B6117E03B697A6802
:1008FC0013441A7807F10C013B690B441B789A429C
:10090C0010D13B69032B06D17B699BB21846FFF7CC
:10091C00F7FC01231BE03B6901333B613B69032B73
:10092C00E4DD00E000BF7B6901337B617B69052B53
:10093C00D1DDFFF7B9FE00210020FFF7CCFE064801
:10094C00FFF725FF4FF4FA7000F056FE002318460F
:10095C001837BD4680BD00BFCC44000880B588B0B8
:10096C0000AF00F0E7FDFFF7D5FEFFF79DFEFFF7A8
:10097C00F1FC00F0D1FA00F06DFB00F013FB00F07D
:10098C003FFBFFF741FD0346FB774FF4967000F0F9
:10099C0033FEB84B1B78DBB2032BF2D801A252F812
:1009AC0023F000BFC1090008B70E0008C90A0008EF
:1009BC001D0B0008FFF778FE00210020FFF78BFECF
:1009CC00AD48FFF7E4FE00210120FFF784FE002371
:1009DC00BB61AA4B1B78DBB2012B6BD0A84B1B78ED
:1009EC00DBB2012B68D0FFF70FFD0346FB77FB7FD3
:1009FC00002BEED0FB7F1846FFF726FE4FF49670C7
:100A0C0000F0FAFD9F4ABB691344FA7F1A70BB6968
:100A1C000133BB61BB69042BDBD19A48FFF7CCFED9
:100A2C000346012B1ED1934B01221A70642000F057
:100A3C00E3FDFFF739FE00210020FFF74CFE924842
:100A4C00FFF7A5FE00210120FFF745FE8F48FFF7B9
:100A5C009EFE4FF47A7000F0CFFD8D4B00221A6091
:100A6C00FFF722FE8748FFF7A7FE0346002BB0D105
:100A7C00804B00221A70642000F0BEFDFFF714FEBC
:100A8C0000210020FFF727FE8248FFF780FE4FF47D
:100A9C007A7000F0B1FD7E4B1B6801337C4A136009
:100AAC007B4B1B68052B02D1724B02221A70FFF78D
:100ABC00FBFD02E000BF12E200BF10E21E237B61CF
:100ACC0000233B611DE07B69013B7B61FFF7ECFD83
:100ADC0000210020FFF7FFFD6F48FFF758FE0021B3
:100AEC000120FFF7F8FD7B69DBB23033DBB218462F
:100AFC00FFF7AAFD4FF4967000F07EFD3B690133C1
:100B0C003B613B691E2BDEDD5A4B00221A70E6E17D
:100B1C00642000F071FD594B00221A700021002056
:100B2C00FFF7D9FD5D48FFF732FE00210120FFF7EA
:100B3C00D2FD5B48FFF72BFEFB7F312B40F054813D
:100B4C00C82000F059FDFFF7AFFD564B00221A707C
:100B5C004A4B1B78DBB2012B00F04381484B1B78CE
:100B6C00DBB2012B00F03F814E4B1B78DBB2032B29
:100B7C0000F0CD80032BEBDC002B02D0022B30D00D
:100B8C00E6E74FF4FA7000F037FD00210020FFF784
:100B9C00A2FD4548FFF7FBFD00210120FFF79BFD5F
:100BAC004248FFF7F4FDFFF72FFC0346FB77FB7F72
:100BBC00312B08D14FF4FA7000F01EFDFFF774FDD5
:100BCC00384B02221A70FB7F322B40F008814FF415
:100BDC00FA7000F011FDFFF767FD324B03221A701B
:100BEC00FDE0FFF761FD00210020FFF774FD3048A8
:100BFC00FFF7CDFD00210120FFF76DFD0023FB6009
:100C0C001E4B1B78DBB2012B7DD01D4B1B78DBB24E
:100C1C00012B7AD0FFF7F8FB0346FB774FF4FA7001
:100C2C0000F0EAFCFB7F002BEAD0FB7F1846FFF7B5
:100C3C000BFD204AFB681344FA7F1A70FB680133E2
:100C4C00FB60FFF7E1FB0346FB77FB7F232BD7D140
:100C5C00FB68042B32DCFFF727FD00210020FFF797
:100C6C003AFD1548FFF793FD4FF4FA7000F0C4FC01
:100C7C00B7E700BF34000020DC4400083700002038
:100C8C003800002040000020E8440008F844000828
:100C9C003C00002008450008144500081C450008CD
:100CAC003045000835000020484500085445000830
:100CBC00644500084400002074450008FB68052BBF
:100CCC009ED18748FFF7AEFD0346012B0DD1FFF7F0
:100CDC00EBFC00210020FFF7FEFC8248FFF757FDDC
:100CEC004FF4FA7000F088FC10E0FFF7DDFC0021F7
:100CFC000020FFF7F0FC7C48FFF749FD4FF4FA7039
:100D0C0000F07AFC02E000BF6AE000BF68E0FFF789
:100D1C00CBFC00210020FFF7DEFC7448FFF737FD09
:100D2C0000210120FFF7D7FC0023BB60704B1B7820
:100D3C00DBB2012B4FD06F4B1B78DBB2012B4CD0AD
:100D4C00FB7F002BF2D0FB7F1846FFF77DFC6A4A35
:100D5C00BB681344FA7F1A70BB680133BB60FB7F1E
:100D6C00232B10D1BB68032B0DDCFFF79DFC00215E
:100D7C000020FFF7B0FC6148FFF709FD4FF4FA7053
:100D8C0000F03AFCC3E7FB7F232BCFD1BB68042BCD
:100D9C00CCD15948FFF798FD0346012B0DD1FFF735
:100DAC0083FC00210020FFF796FC4E48FFF7EFFC78
:100DBC004FF4FA7000F020FC10E0FFF775FC0021F6
:100DCC000020FFF788FC4848FFF7E1FC4FF4FA706D
:100DDC0000F012FC02E000BF02E000BF00E000BF28
:100DEC00B6E600BF00E000BFFB7F322B75D1C820F8
:100DFC0000F002FCFFF758FC414B01221A703C4BEF
:100E0C001B78DBB2012B4CD03A4B1B78DBB2012B9D
:100E1C0049D03B4B1B78DBB2052B3ED0052BEEDCCF
:100E2C00012B02D0042B28D0E9E7642000F0E4FB6E
:100E3C0000210020FFF74FFC3248FFF7A8FC0021EF
:100E4C000120FFF748FC3048FFF7A1FCFB7F312B5A
:100E5C0007D1C82000F0D0FBFFF726FC284B04225A
:100E6C001A70FB7F322B1AD1C82000F0C5FBFFF79C
:100E7C001BFC234B05221A7011E0FFF715FC002117
:100E8C000020FFF728FC2148FFF781FC00210120FE
:100E9C00FFF721FC00237B60FEE700BFAFE700BF3C
:100EAC00ADE700BF19E000BF17E00122012118488F
:100EBC0000F021FF4FF4FA7000F09EFB002201219C
:100ECC00134800F018FF642000F096FB114B002231
:100EDC001A70084B00221A7001E000BF51E550E572
:100EEC00440000208445000890450008A0450008F7
:100EFC00370000203800002048000020744500080E
:100F0C0036000020B0450008C4450008DC45000848
:100F1C00000C01403400002080B590B000AF07F108
:100F2C00180328220021184603F088FA3B1D0022E2
:100F3C001A605A609A60DA601A610123BB614FF43F
:100F4C008033FB6100233B620123BB6202237B6382
:100F5C004FF48033BB634FF48023FB6307F118031A
:100F6C00184602F0D3F80346002B01D000F0B6F976
:100F7C000F237B600223BB600023FB6000233B61DB
:100F8C004FF480637B613B1D0021184602F040FB4F
:100F9C000346002B01D000F0A1F900BF4037BD463D
:100FAC0080BD000080B500AF124B134A1A60114B84
:100FBC00124A5A600F4B00229A600E4B0022DA60E4
:100FCC000C4B4FF480421A610A4B00225A61094BB8
:100FDC0000229A61074B0022DA61064B00221A624A
:100FEC00044800F0B9FE0346002B01D000F076F95E
:100FFC0000BF80BD5800002000540040A0860100B6
:10100C0080B500AF114B124A1A60104B4FF4E1320D
:10101C005A600E4B00229A600C4B0022DA600B4B8C
:10102C0000221A61094B0C225A61084B00229A616A
:10103C00064B0022DA61054802F078FC0346002BCF
:10104C0001D000F04BF900BF80BD00BFAC00002008
:10105C000044004080B588B000AF07F110030022B7
:10106C001A605A609A60DA60404B9B693F4A43F0C1
:10107C00200393613D4B9B6903F02003FB60FB68ED
:10108C003A4B9B69394A43F004039361374B9B6994
:10109C0003F00403BB60BB68344B9B69334A43F0D9
:1010AC0008039361314B9B6903F008037B607B68F9
:1010BC0000224AF201012E4800F01DFE00224FF4DE
:1010CC00C0612C4800F017FE4AF201033B6101237A
:1010DC007B610223BB610223FB6107F110031946FC
:1010EC00234800F06DFC40F202433B61224B7B61D4
:1010FC000223BB6107F1100319461D4800F060FC88
:10110C004FF4A0433B6100237B610223BB6107F1D9
:10111C0010031946164800F053FC4FF480733B61E2
:10112C0000237B610223BB6107F1100319461148B0
:10113C0000F046FC4FF4C0633B6101237B6102234A
:10114C00BB610223FB6107F110031946094800F04B
:10115C0037FC00220121072000F049FB072000F09A
:10116C0062FB00BF2037BD4680BD00BF00100240AF
:10117C00000C0140000801400000111080B582B045
:10118C0000AF0346FB80FB88022B07D10A4B0322DE
:10119C001A700A4B01221A70FFF786FAFB88B3F516
:1011AC00806F05D1044B01221A70054B01221A7075
:1011BC0000BF0837BD4680BD34000020370000203A
:1011CC003800002080B588B000AF78607B681A6862
:1011DC003A4B1B689A426CD10A223949374802F0C3
:1011EC00F5FB384B1B78DBB2002B60D1364B002261
:1011FC001A701E23FB6138E0FB6998B207F10C02F0
:10120C000A230021FFF71AF80023BB6120E02C4AC7
:10121C00BB6913441A7807F10C01BB690B441B78AA
:10122C009A4219D1BB690A2B0FD1FFF73DFA002165
:10123C000020FFF750FA2548FFF7A9FA214B0122AD
:10124C001A70214B01221A7007E0BB690133BB6194
:10125C00BB690A2BDBD900E000BF1B4B1B78DBB250
:10126C00012B06D0FB690133FB61FB690A2BC3DD43
:10127C0000E000BF144B1B78DBB2002B17D1FFF73B
:10128C0013FA00210020FFF726FA1148FFF77FFA26
:10129C00104B1B6801330F4A13600E4B1B68042B59
:1012AC0005DD084B02221A700A4B00221A600A4B09
:1012BC001B7800BF2037BD4680BD00BFAC000020AE
:1012CC004C0000203400002039000020EC450008C0
:1012DC00F84500083C0000203600002080B400AF28
:1012EC0072B600BFFEE7000080B485B000AF154BAE
:1012FC009B69144A43F001039361124B9B6903F001
:10130C000103BB60BB680F4BDB690E4A43F0805393
:10131C00D3610C4BDB6903F080537B607B680A4B19
:10132C005B68FB60FB6823F0E063FB60FB6843F0E9
:10133C000073FB60044AFB68536000BF1437BD4662
:10134C0080BC7047001002400000014080B588B09E
:10135C0000AF786007F1100300221A605A609A609F
:10136C00DA607B681B68154A934223D1144B9B6946
:10137C00134A43F008039361114B9B6903F0080374
:10138C00FB60FB68C0233B6112237B610323FB6181
:10139C0007F1100319460B4800F012FB084BDB69F0
:1013AC00074A43F40013D361054BDB6903F40013C4
:1013BC00BB60BB6800BF2037BD4680BD00540040F9
:1013CC0000100240000C014080B588B000AF78607E
:1013DC0007F1100300221A605A609A60DA607B6889
:1013EC001B681F4A934237D11E4BDB691D4A43F4DD
:1013FC000033D3611B4BDB6903F40033FB60FB68E8
:10140C00184B9B69174A43F004039361154B9B6976
:10141C0003F00403BB60BB6804233B6102237B61C4
:10142C000323FB6107F1100319460F4800F0C8FABB
:10143C0008233B6100237B610023BB6107F1100390
:10144C001946094800F0BCFA00220121262000F0C0
:10145C00CEF9262000F0E7F900BF2037BD4680BD4D
:10146C0000440040001002400008014080B400AF6E
:10147C00FEE780B400AFFEE780B400AFFEE780B4B7
:10148C0000AFFEE780B400AFFEE780B400AF00BF52
:10149C00BD4680BC704780B400AF00BFBD4680BC69
:1014AC00704780B400AF00BFBD4680BC704780B5AC
:1014BC0000AF00F085F800BF80BD80B500AF022002
:1014CC0000F032FC00BF80BD80B500AF024802F0D6
:1014DC00A3FA00BF80BD00BFAC00002080B400AFF9
:1014EC0000BFBD4680BC7047FFF7F8FF0B480C49A6
:1014FC000C4A002302E0D458C4500433C4188C4264
:10150C00F9D3094A094C002301E013600432A242CA
:10151C00FBD302F09BFFFFF721FA7047000000207D
:10152C00180000203446000818000020F8000020A5
:10153C00FEE7000080B500AF084B1B68074A43F07C
:10154C0010031360032000F047F90F2000F008F897
:10155C00FFF7CAFE0023184680BD00BF00200240E2
:10156C0080B582B000AF7860124B1A68124B1B78B2
:10157C0019464FF47A73B3FBF1F3B2FBF3F318464D
:10158C0000F05FF90346002B01D001230EE07B68CD
:10159C000F2B0AD8002279684FF0FF3000F027F9A2
:1015AC00064A7B681360002300E0012318460837C5
:1015BC00BD4680BD0C00002014000020100000204F
:1015CC0080B400AF054B1B781A46054B1B681344BF
:1015DC00034A136000BFBD4680BC70471400002056
:1015EC00F400002080B400AF024B1B681846BD46C7
:1015FC0080BC7047F400002080B584B000AF7860E8
:10160C00FFF7F0FFB8607B68FB60FB68B3F1FF3F4E
:10161C0005D00A4B1B781A46FB681344FB6000BFCD
:10162C00FFF7E0FF0246BB68D31AFA689A42F7D874
:10163C0000BF00BF1037BD4680BD00BF14000020A6
:10164C0080B485B000AF78607B6803F00703FB6063
:10165C000C4BDB68BB60BA684FF6FF031340BB60F2
:10166C00FB681A02BB68134343F0BF6343F40033B7
:10167C00BB60044ABB68D36000BF1437BD4680BC56
:10168C00704700BF00ED00E080B400AF044BDB6896
:10169C001B0A03F007031846BD4680BC704700BF09
:1016AC0000ED00E080B483B000AF0346FB7197F906
:1016BC000730002B0BDBFB7903F01F02064997F96F
:1016CC0007305B09012000FA02F241F8232000BF29
:1016DC000C37BD4680BC704700E100E080B483B09D
:1016EC0000AF03463960FB7197F90730002B0ADB1A
:1016FC003B68DAB20C4997F907301201D2B20B44AD
:10170C0083F800230AE03B68DAB20849FB7903F05E
:10171C000F03043B1201D2B20B441A7600BF0C37F4
:10172C00BD4680BC704700BF00E100E000ED00E06A
:10173C0080B489B000AFF860B9607A60FB6803F0E0
:10174C000703FB61FB69C3F10703042B28BF0423C8
:10175C00BB61FB690433062B02D9FB69033B00E038
:10176C0000237B614FF0FF32BB6902FA03F3DA43CB
:10177C00BB681A407B699A404FF0FF317B6901FAD4
:10178C0003F3D9437B680B40134318462437BD46FB
:10179C0080BC704780B582B000AF78607B68013B3D
:1017AC00B3F1807F01D301230FE00A4A7B68013B30
:1017BC0053600F214FF0FF30FFF790FF054B0022D5
:1017CC009A60044B07221A60002318460837BD465E
:1017DC0080BD00BF10E000E080B582B000AF786043
:1017EC007868FFF72DFF00BF0837BD4680BD80B578
:1017FC0086B000AF0346B9607A60FB7300237B614F
:10180C00FFF742FF78617A68B9687869FFF790FF53
:10181C00024697F90F3011461846FFF75FFF00BFDD
:10182C001837BD4680BD80B582B000AF0346FB7152
:10183C0097F907301846FFF735FF00BF0837BD464C
:10184C0080BD80B582B000AF78607868FFF7A2FFEA
:10185C00034618460837BD4680BD80B485B000AF3E
:10186C0078600023FB737B6893F82130DBB2022B8A
:10187C0008D07B6804229A637B68002283F82020BE
:10188C00012320E07B681B681A687B681B6822F0C8
:10189C000E021A607B681B681A687B681B6822F052
:1018AC0001021A607B681A6C7B68DB6B012101FA00
:1018BC0002F25A607B68012283F821207B680022A7
:1018CC0083F82020FB7B18461437BD4680BC70473C
:1018DC0080B584B000AF78600023FB737B6893F80D
:1018EC002130DBB2022B05D07B6804229A630123E2
:1018FC00FB7351E07B681B681A687B681B6822F0DD
:10190C000E021A607B681B681A687B681B6822F0E1
:10191C0001021A607B681B68224A934229D07B68BB
:10192C001B68214A934222D07B681B681F4A934252
:10193C001AD07B681B681E4A934212D07B681B68C6
:10194C001C4A93420AD07B681B681B4A934202D103
:10195C004FF480130EE04FF080730BE04FF48033A4
:10196C0008E04FF4805305E04FF4807302E010233D
:10197C0000E00123114A53607B68012283F8212087
:10198C007B68002283F820207B685B6B002B03D0E4
:10199C007B685B6B78689847FB7B18461037BD46B5
:1019AC0080BD00BF080002401C0002403000024015
:1019BC0044000240580002406C000240000002400B
:1019CC0080B48BB000AF7860396000237B62002359
:1019DC003B6269E101227B6A02FA03F3FB613B681B
:1019EC001B68FA691340BB61BA69FB699A4240F003
:1019FC0058813B685B689A4A93425ED0984A9342FE
:101A0C0075D8984A934258D0964A93426FD8964AC2
:101A1C00934252D0944A934269D8944A93424CD000
:101A2C00924A934263D8924A934246D0904A934248
:101A3C005DD8122B2AD8122B59D801A252F823F0B8
:101A4C00C71A0008A11A0008B31A0008F51A0008F2
:101A5C00FB1A0008FB1A0008FB1A0008FB1A000806
:101A6C00FB1A0008FB1A0008FB1A0008FB1A0008F6
:101A7C00FB1A0008FB1A0008FB1A0008FB1A0008E6
:101A8C00FB1A0008A91A0008BD1A0008794A9342EB
:101A9C0013D02CE03B68DB683B6229E03B68DB68D9
:101AAC0004333B6224E03B68DB6808333B621FE095
:101ABC003B68DB680C333B621AE03B689B68002B8D
:101ACC0002D104233B6213E03B689B68012B05D1D8
:101ADC0008233B627B68FA691A6109E008233B62C0
:101AEC007B68FA695A6103E000233B6200E000BFA7
:101AFC00BB69FF2B01D87B6801E07B6804337B61F9
:101B0C00BB69FF2B02D87B6A9B0002E07B6A083B17
:101B1C009B003B617B691A680F213B6901FA03F357
:101B2C00DB431A40396A3B6901FA03F31A437B69B8
:101B3C001A603B685B6803F08053002B00F0B180A7
:101B4C004D4B9B694C4A43F0010393614A4B9B6993
:101B5C0003F00103BB60BB68484A7B6A9B080233F5
:101B6C0052F82330FB607B6A03F003039B000F22C7
:101B7C0002FA03F3DB43FA681340FB607B68404ACC
:101B8C00934213D07B683F4A93420DD07B683E4A08
:101B9C00934207D07B683D4A934201D1032306E070
:101BAC00042304E0022302E0012300E000237A6A0C
:101BBC0002F0030292009340FA681343FB602F4932
:101BCC007B6A9B080233FA6841F823203B685B6808
:101BDC0003F48013002B06D02D4B9A682C49BB695B
:101BEC0013438B6006E02A4B9A68BB69DB43284998
:101BFC0013408B603B685B6803F40013002B06D02A
:101C0C00234BDA682249BB691343CB6006E0204BB7
:101C1C00DA68BB69DB431E491340CB603B685B68E9
:101C2C0003F40033002B06D0194B5A681849BB69D2
:101C3C0013434B6006E0164B5A68BB69DB431449EF
:101C4C0013404B603B685B6803F48033002B21D05E
:101C5C000F4B1A680E49BB6913430B6021E000BFA0
:101C6C000000321000003110000022100000211082
:101C7C000000121000001110001002400000014082
:101C8C0000080140000C014000100140001401400C
:101C9C00000401400B4B1A68BB69DB430949134034
:101CAC000B607B6A01337B623B681A687B6A22FAA1
:101CBC0003F3002B7FF48EAE00BF00BF2C37BD4664
:101CCC0080BC70470004014080B485B000AF7860E0
:101CDC000B467B807B689A687B881340002B02D074
:101CEC000123FB7301E00023FB73FB7B18461437C5
:101CFC00BD4680BC704780B483B000AF78600B46A3
:101D0C007B8013467B707B78002B03D07A887B68B2
:101D1C001A6103E07B881A047B681A6100BF0C37D8
:101D2C00BD4680BC7047000080B582B000AF034652
:101D3C00FB80084B5A69FB881340002B06D0054AE0
:101D4C00FB885361FB881846FFF718FA00BF083769
:101D5C00BD4680BD0004014080B584B000AF786002
:101D6C007B68002B01D101232BE17B6893F83D307C
:101D7C00DBB2002B06D17B68002283F83C2078680C
:101D8C00FFF7E4FA7B68242283F83D207B681B680C
:101D9C001A687B681B6822F001021A607B681B685A
:101DAC001A687B681B6842F400421A607B681B68E7
:101DBC001A687B681B6822F400421A6001F070FDFF
:101DCC00F8607B685B68814A934207D8FB68804A5D
:101DDC00934294BF01230023DBB206E0FB687D4AEB
:101DEC00934294BF01230023DBB2002B01D00123CB
:101DFC00E7E0FB68784AA2FB03239B0CBB607B6883
:101E0C001B685B6823F03F017B681B68BA680A4358
:101E1C005A607B681B681B6A23F03F017B685B6818
:101E2C006A4A934202D8BB68013309E0BB684FF49D
:101E3C00967202FB03F3694AA2FB03239B0901334D
:101E4C007A6812680B4313627B681B68DB6923F4A6
:101E5C004F4222F0FF027B685B685C498B4219D8C9
:101E6C00FB68591E7B685B685B00B1FBF3F3591C84
:101E7C0040F6FC730B40002B0AD0FB68591E7B68A4
:101E8C005B685B00B1FBF3F30133C3F30B0351E06D
:101E9C0004234FE07B689B68002B11D1FB68581E14
:101EAC007B6859680B465B000B44B0FBF3F30133C2
:101EBC00C3F30B03002B0CBF01230023DBB212E096
:101ECC00FB68581E7B6859680B469B000B449900B5
:101EDC000B44B0FBF3F30133C3F30B03002B0CBF28
:101EEC0001230023DBB2002B01D0012322E07B680D
:101EFC009B68002B0ED1FB68581E7B6859680B46FB
:101F0C005B000B44B0FBF3F30133C3F30B0343F45B
:101F1C0000430FE0FB68581E7B6859680B469B001A
:101F2C000B4499000B44B0FBF3F30133C3F30B03E5
:101F3C0043F44043796809681343CB617B681B68A1
:101F4C001B6823F0C0017B68DA697B681B6A1A4343
:101F5C007B681B680A431A607B681B689B6823F4C8
:101F6C00034323F0FF037A6811697A68D26811433E
:101F7C007A6812680B4393607B681B68DB6823F0FC
:101F8C00FF017B685A697B689B691A437B681B68F5
:101F9C000A43DA607B681B681A687B681B6842F02E
:101FAC0001021A607B6800221A647B68202283F885
:101FBC003D207B6800221A637B68002283F83E2058
:101FCC00002318461037BD4680BD00BFA086010017
:101FDC007F841E00FF083D0083DE1B43D34D62103F
:101FEC0080B588B002AFF8607A601A460B467B81E8
:101FFC0013463B81FFF7F6FA7861FB6893F83D30A6
:10200C00DBB2202B40F0E0807B6900931923012286
:10201C007049F86800F044FE0346002B01D00223FF
:10202C00D3E0FB6893F83C30012B01D10223CCE0C8
:10203C00FB68012283F83C20FB681B681B6803F0DB
:10204C000103012B07D0FB681B681A68FB681B682F
:10205C0042F001021A60FB681B681A68FB681B6877
:10206C0022F400621A60FB68212283F83D20FB6891
:10207C00102283F83E20FB6800221A64FB687A6801
:10208C005A62FB683A895A85FB685B8D9AB2FB6889
:10209C001A85FB68504ADA6279897B693A6AF86872
:1020AC0000F0FEFB0346002B01D001238DE0002342
:1020BC003B61FB681B685B693B61FB681B689B6948
:1020CC003B613B6966E07A69396AF86800F002FFA7
:1020DC000346002B0DD0FB681B6C042B07D1FB684F
:1020EC001B681A68FB681B6842F400721A600123B3
:1020FC006BE0FB685B6A1A78FB681B681A61FB680B
:10210C005B6A5A1CFB685A62FB685B8D9BB2013B95
:10211C009AB2FB685A85FB681B8D013B9AB2FB682F
:10212C001A85FB681B685B6903F00403042B1BD145
:10213C00FB681B8D002B17D0FB685B6A1A78FB6859
:10214C001B681A61FB685B6A5A1CFB685A62FB6865
:10215C005B8D9BB2013B9AB2FB685A85FB681B8D69
:10216C00013B9AB2FB681A857A69396AF86800F003
:10217C00F9FE0346002B0DD0FB681B6C042B07D11A
:10218C00FB681B681A68FB681B6842F400721A60D3
:10219C0001231AE0FB681B8D002B94D1FB681B6894
:1021AC001A68FB681B6842F400721A60FB682022F4
:1021BC0083F83D20FB68002283F83E20FB68002258
:1021CC0083F83C20002300E0022318461837BD4654
:1021DC0080BD00BF020010000000FFFF80B588B07A
:1021EC0002AFF860084611461A4603467B810B463F
:1021FC003B811346FB80FFF7F5F97861FB6893F898
:10220C003D30DBB2202B40F0D9807B690093192341
:10221C0001226D49F86800F043FD0346002B01D004
:10222C000223CCE0FB6893F83C30012B01D1022354
:10223C00C5E0FB68012283F83C20FB681B681B6827
:10224C0003F00103012B07D0FB681B681A68FB68BD
:10225C001B6842F001021A60FB681B681A68FB6875
:10226C001B6822F400621A60FB68212283F83D206F
:10227C00FB68402283F83E20FB6800221A64FB684E
:10228C003A6A5A62FB68BA8C5A85FB685B8D9AB2C3
:10229C00FB681A85FB684D4ADA62F8883A897989B5
:1022AC007B690193BB6A00930346F86800F07AFBE4
:1022BC000346002B52D0012381E07A69B96AF86891
:1022CC0000F008FE0346002B0DD0FB681B6C042BA2
:1022DC0007D1FB681B681A68FB681B6842F4007224
:1022EC001A6001236BE0FB685B6A1A78FB681B6859
:1022FC001A61FB685B6A5A1CFB685A62FB681B8D8F
:10230C00013B9AB2FB681A85FB685B8D9BB2013B63
:10231C009AB2FB685A85FB681B685B6903F004037F
:10232C00042B1BD1FB681B8D002B17D0FB685B6A41
:10233C001A78FB681B681A61FB685B6A5A1CFB689D
:10234C005A62FB681B8D013B9AB2FB681A85FB68CD
:10235C005B8D9BB2013B9AB2FB685A85FB681B8D67
:10236C00002BAAD17A69B96AF86800F0FBFD034624
:10237C00002B0DD0FB681B6C042B07D1FB681B6872
:10238C001A68FB681B6842F400721A60012316E09D
:10239C00FB681B681A68FB681B6842F400721A60C1
:1023AC00FB68202283F83D20FB68002283F83E2046
:1023BC00FB68002283F83C20002300E0022318462F
:1023CC001837BD4680BD00BF020010000000FFFFA3
:1023DC0080B58CB002AFF860084611461A46034629
:1023EC007B810B463B811346FB8000233B62FFF74E
:1023FC00F9F87862FB6893F83D30DBB2202B40F0A3
:10240C0044827B6A0093192301228249F86800F008
:10241C0047FC0346002B01D0022337E2FB6893F8FC
:10242C003C30012B01D1022330E2FB68012283F8FE
:10243C003C20FB681B681B6803F00103012B07D0D1
:10244C00FB681B681A68FB681B6842F001021A6083
:10245C00FB681B681A68FB681B6822F400621A6030
:10246C00FB68222283F83D20FB68402283F83E2043
:10247C00FB6800221A64FB683A6B5A62FB68BA8EDE
:10248C005A85FB685B8D9AB2FB681A85FB68624AB9
:10249C00DA62F8883A8979897B6A0193BB6B00937D
:1024AC000346F86800F014FB0346002B01D001230F
:1024BC00ECE1FB681B8D002B13D10023FB61FB6847
:1024CC001B685B69FB61FB681B689B69FB61FB69B3
:1024DC00FB681B681A68FB681B6842F400721A6080
:1024EC00C0E1FB681B8D012B1ED1FB681B681A68B1
:1024FC00FB681B6822F480621A6072B600BF00236E
:10250C00BB61FB681B685B69BB61FB681B689B69F3
:10251C00BB61BB69FB681B681A68FB681B6842F4EB
:10252C0000721A6062B635E0FB681B8D022B1ED15F
:10253C00FB681B681A68FB681B6842F400621A602F
:10254C0072B600BF00237B61FB681B685B697B6113
:10255C00FB681B689B697B617B69FB681B681A685D
:10256C00FB681B6822F480621A6062B612E0FB689A
:10257C001B681A68FB681B6842F480621A600023AF
:10258C003B61FB681B685B693B61FB681B689B6973
:10259C003B613B6966E1FB681B8D032B00F21F81DD
:1025AC00FB681B8D012B23D17A6AB96BF86800F09C
:1025BC0021FD0346002B01D0012367E1FB681B685A
:1025CC001A69FB685B6AD2B21A70FB685B6A5A1CA8
:1025DC00FB685A62FB681B8D013B9AB2FB681A853B
:1025EC00FB685B8D9BB2013B9AB2FB685A8539E163
:1025FC00FB681B8D022B52D17B6A0093BB6B0022B4
:10260C000649F86800F04CFB0346002B08D0012368
:10261C003CE100BF020010000000FFFF04000100BD
:10262C0072B600BFFB681B681A68FB681B6842F433
:10263C0000721A60FB681B681A69FB685B6AD2B28D
:10264C001A70FB685B6A5A1CFB685A62FB681B8D2C
:10265C00013B9AB2FB681A85FB685B8D9BB2013B10
:10266C009AB2FB685A8562B600BFFB681B681A6990
:10267C00FB685B6AD2B21A70FB685B6A5A1CFB6817
:10268C005A62FB681B8D013B9AB2FB681A85FB688A
:10269C005B8D9BB2013B9AB2FB685A85E2E07B6A88
:1026AC000093BB6B00227B49F86800F0F9FA0346F3
:1026BC00002B01D00123E9E0FB681B681A68FB685A
:1026CC001B6822F480621A6072B600BFFB681B683C
:1026DC001A69FB685B6AD2B21A70FB685B6A5A1C97
:1026EC00FB685A62FB681B8D013B9AB2FB681A852A
:1026FC00FB685B8D9BB2013B9AB2FB685A85664BBB
:10270C001B68DB08654AA2FB03231A0A13469B00CD
:10271C001344DA00D31A3B623B6A013B3B623B6ACF
:10272C00002B18D1FB6800221A63FB68202283F867
:10273C003D20FB68002283F83E20FB681B6C43F0B5
:10274C002002FB681A6462B600BFFB68002283F8A3
:10275C003C2001239AE0FB681B685B6903F00403CF
:10276C00042BD9D1FB681B681A68FB681B6842F400
:10277C0000721A60FB681B681A69FB685B6AD2B24C
:10278C001A70FB685B6A5A1CFB685A62FB681B8DEB
:10279C00013B9AB2FB681A85FB685B8D9BB2013BCF
:1027AC009AB2FB685A8562B600BFFB681B681A694F
:1027BC00FB685B6AD2B21A70FB685B6A5A1CFB68D6
:1027CC005A62FB681B8D013B9AB2FB681A85FB6849
:1027DC005B8D9BB2013B9AB2FB685A8542E07A6AE8
:1027EC00B96BF86800F006FC0346002B01D00123FE
:1027FC004CE0FB681B681A69FB685B6AD2B21A7002
:10280C00FB685B6A5A1CFB685A62FB681B8D013BB8
:10281C009AB2FB681A85FB685B8D9BB2013B9AB23E
:10282C00FB685A85FB681B685B6903F00403042B87
:10283C0018D1FB681B681A69FB685B6AD2B21A7004
:10284C00FB685B6A5A1CFB685A62FB681B8D013B78
:10285C009AB2FB681A85FB685B8D9BB2013B9AB2FE
:10286C00FB685A85FB681B8D002B7FF494AEFB68CC
:10287C00202283F83D20FB68002283F83E20FB6871
:10288C00002283F83C20002300E00223184628375E
:10289C00BD4680BD040001000C00002089B5F81471
:1028AC0080B588B002AFF8607A603B600B467B81E4
:1028BC00FB68DB6A7B617B69082B06D07B69012B8B
:1028CC0003D07B6913F5803F08D1FB681B681A683D
:1028DC00FB681B6842F480721A600BE0FB681B6B90
:1028EC00122B07D1FB681B681A68FB681B6842F443
:1028FC0080721A603B6800937B6800224FF00111D4
:10290C00F86800F0CDF90346002B0DD0FB681B686E
:10291C001B6803F48073B3F5807F03D1FB684FF41D
:10292C0000721A64032335E0FB681B69B3F5804F12
:10293C0008D17B89DBB21A46FB681B6802F0FE02E9
:10294C001A611BE07B89DB11DBB203F00603DBB2FF
:10295C0063F00F03DAB2FB681B681A613B687A6894
:10296C000E49F86800F016FA0346002B01D001233B
:10297C0010E07B89DAB2FB681B681A613B687A68E5
:10298C000749F86800F006FA0346002B01D0012332
:10299C0000E0002318461837BD4680BD0800010032
:1029AC000200010080B588B002AFF86008461146FD
:1029BC001A4603467B810B463B811346FB80FB6822
:1029CC001B681A68FB681B6842F480721A607B6A89
:1029DC0000933B6A00224FF00111F86800F060F997
:1029EC000346002B0DD0FB681B681B6803F4807337
:1029FC00B3F5807F03D1FB684FF400721A64032394
:102A0C005FE07B89DBB21A46FB681B6802F0FE02B2
:102A1C001A617B6A3A6A2D49F86800F0BBF90346E3
:102A2C00002B01D001234CE000237B61FB681B6869
:102A3C005B697B61FB681B689B697B617B697A6A5C
:102A4C00396AF86800F046FA0346002B0DD0FB6893
:102A5C001B6C042B07D1FB681B681A68FB681B688E
:102A6C0042F400721A6001232BE0FB88012B05D184
:102A7C003B89DAB2FB681B681A6121E03B891B0AAF
:102A8C009BB2DAB2FB681B681A617A6A396AF86819
:102A9C0000F020FA0346002B0DD0FB681B6C042BB6
:102AAC0007D1FB681B681A68FB681B6842F400724C
:102ABC001A60012305E03B89DAB2FB681B681A61D6
:102ACC00002318461837BD4680BD00BF0200010028
:102ADC0080B588B002AFF860084611461A46034626
:102AEC007B810B463B811346FB80FB681B681A6895
:102AFC00FB681B6842F480621A60FB681B681A68EA
:102B0C00FB681B6842F480721A607B6A00933B6A14
:102B1C0000224FF00111F86800F0C2F80346002BB8
:102B2C000DD0FB681B681B6803F48073B3F5807FC2
:102B3C0003D1FB684FF400721A640323AAE07B896B
:102B4C00DBB21A46FB681B6802F0FE021A617B6A54
:102B5C003A6A5249F86800F01DF90346002B01D07F
:102B6C00012397E000237B61FB681B685B697B6139
:102B7C00FB681B689B697B617B697A6A396AF868B8
:102B8C0000F0A8F90346002B0DD0FB681B6C042B3E
:102B9C0007D1FB681B681A68FB681B6842F400725B
:102BAC001A60012376E0FB88012B05D13B89DAB250
:102BBC00FB681B681A6121E03B891B0A9BB2DAB2E5
:102BCC00FB681B681A617A6A396AF86800F082F946
:102BDC000346002B0DD0FB681B6C042B07D1FB6844
:102BEC001B681A68FB681B6842F400721A600123A8
:102BFC0050E03B89DAB2FB681B681A617A6A396A61
:102C0C00F86800F067F90346002B0DD0FB681B6CCD
:102C1C00042B07D1FB681B681A68FB681B6842F41D
:102C2C0000721A60012335E0FB681B681A68FB68A8
:102C3C001B6842F480721A607B6A00933B6A002224
:102C4C004FF00111F86800F02BF80346002B0DD063
:102C5C00FB681B681B6803F48073B3F5807F03D19A
:102C6C00FB684FF400721A64032313E07B89DBB218
:102C7C0043F00103DAB2FB681B681A617B6A3A6A9B
:102C8C000649F86800F086F80346002B01D00123B2
:102C9C0000E0002318461837BD4680BD0200010035
:102CAC0080B584B000AFF860B9603B601346FB712F
:102CBC0048E03B68B3F1FF3F44D0FEF793FC02467B
:102CCC00BB69D31A3A689A4202D33B68002B39D1BC
:102CDC00BB681B0CDBB2012B0DD1FB681B685B695D
:102CEC00DA43BB6813409BB2002B0CBF01230023BB
:102CFC00DBB21A460CE0FB681B689B69DA43BB68C5
:102D0C0013409BB2002B0CBF01230023DBB21A46ED
:102D1C00FB799A4216D1FB6800221A63FB682022C9
:102D2C0083F83D20FB68002283F83E20FB681B6C77
:102D3C0043F02002FB681A64FB68002283F83C20F5
:102D4C00012323E0BB681B0CDBB2012B0DD1FB680C
:102D5C001B685B69DA43BB6813409BB2002B0CBF4A
:102D6C0001230023DBB21A460CE0FB681B689B694D
:102D7C00DA43BB6813409BB2002B0CBF012300232A
:102D8C00DBB21A46FB799A4293D0002318461037CF
:102D9C00BD4680BD80B584B000AFF860B9607A6084
:102DAC003B6071E0FB681B685B6903F48063B3F5FF
:102DBC00806F23D1FB681B681A68FB681B6842F4A0
:102DCC0000721A60FB681B686FF480625A61FB68C2
:102DDC0000221A63FB68202283F83D20FB68002246
:102DEC0083F83E20FB681B6C43F00402FB681A64FA
:102DFC00FB68002283F83C20012367E07B68B3F179
:102E0C00FF3F41D0FEF7EEFB02463B68D31A7A68CF
:102E1C009A4202D37B68002B36D1BB681B0CDBB209
:102E2C00012B0CD1FB681B685B69DA43BB68134050
:102E3C009BB2002B14BF01230023DBB20BE0FB6819
:102E4C001B689B69DA43BB6813409BB2002B14BF11
:102E5C0001230023DBB2002B16D0FB6800221A637F
:102E6C00FB68202283F83D20FB68002283F83E207B
:102E7C00FB681B6C43F02002FB681A64FB680022A1
:102E8C0083F83C20012321E0BB681B0CDBB2012B37
:102E9C000CD1FB681B685B69DA43BB6813409BB2BF
:102EAC00002B14BF01230023DBB20BE0FB681B6873
:102EBC009B69DA43BB6813409BB2002B14BF012300
:102ECC000023DBB2002B7FF46DAF002318461037C4
:102EDC00BD4680BD80B584B000AFF860B9607A6043
:102EEC0034E0F86800F0E3F80346002B01D001232E
:102EFC0034E0BB68B3F1FF3F28D0FEF773FB02460A
:102F0C007B68D31ABA689A4202D3BB68002B1DD1D6
:102F1C00FB681B685B6903F08003802B16D0FB6891
:102F2C0000221A63FB68202283F83D20FB680022F4
:102F3C0083F83E20FB681B6C43F02002FB681A648C
:102F4C00FB68002283F83C20012307E0FB681B6828
:102F5C005B6903F08003802BC3D100231846103724
:102F6C00BD4680BD80B584B000AFF860B9607A60B2
:102F7C0034E0F86800F09BF80346002B01D00123E5
:102F8C0034E0BB68B3F1FF3F28D0FEF72BFB0246C1
:102F9C007B68D31ABA689A4202D3BB68002B1DD146
:102FAC00FB681B685B6903F00403042B16D0FB68F9
:102FBC0000221A63FB68202283F83D20FB68002264
:102FCC0083F83E20FB681B6C43F02002FB681A64FC
:102FDC00FB68002283F83C20012307E0FB681B6898
:102FEC005B6903F00403042BC3D10023184610378C
:102FFC00BD4680BD80B584B000AFF860B9607A6022
:10300C0049E0FB681B685B6903F01003102B19D1B6
:10301C00FB681B686FF010025A61FB6800221A6390
:10302C00FB68202283F83D20FB68002283F83E20B9
:10303C00FB681A6CFB681A64FB68002283F83C205E
:10304C00012330E0FEF7CEFA02467B68D31ABA6849
:10305C009A4202D3BB68002B1DD1FB681B685B69CD
:10306C0003F04003402B16D0FB6800221A63FB6868
:10307C00202283F83D20FB68002283F83E20FB6869
:10308C001B6C43F02002FB681A64FB68002283F877
:10309C003C20012307E0FB681B685B6903F04003DD
:1030AC00402BAED1002318461037BD4680BD80B4EE
:1030BC0083B000AF78607B681B685B6903F4806346
:1030CC00B3F5806F1BD17B681B686FF480625A610B
:1030DC007B6800221A637B68202283F83D207B6882
:1030EC00002283F83E207B681B6C43F004027B6853
:1030FC001A647B68002283F83C20012300E0002343
:10310C0018460C37BD4680BC7047000080B586B0B1
:10311C0000AF78607B68002B01D1012372E27B68E1
:10312C001B6803F00103002B00F08780924B5B6857
:10313C0003F00C03042B0CD08F4B5B6803F00C03D7
:10314C00082B12D18C4B5B6803F48033B3F5803FB2
:10315C000BD1894B1B6803F40033002B6CD07B68BC
:10316C005B68002B68D101234CE27B685B68B3F58C
:10317C00803F06D1804B1B687F4A43F48033136039
:10318C002EE07B685B68002B0CD17B4B1B687A4A6A
:10319C0023F480331360784B1B68774A23F4802325
:1031AC0013601DE07B685B68B3F5A02F0CD1724BEC
:1031BC001B68714A43F4802313606F4B1B686E4A83
:1031CC0043F4803313600BE06B4B1B686A4A23F4A7
:1031DC0080331360684B1B68674A23F480231360A9
:1031EC007B685B68002B13D0FEF7FCF9386108E0B4
:1031FC00FEF7F8F902463B69D31A642B01D9032375
:10320C0000E25D4B1B6803F40033002BF0D014E09C
:10321C00FEF7E8F9386108E0FEF7E4F902463B698D
:10322C00D31A642B01D90323ECE1534B1B6803F431
:10323C000033002BF0D100E000BF7B681B6803F06B
:10324C000203002B63D04C4B5B6803F00C03002B88
:10325C000BD0494B5B6803F00C03082B1CD1464B7D
:10326C005B6803F48033002B16D1434B1B6803F0CF
:10327C000203002B05D07B681B69012B01D00123B5
:10328C00C0E13D4B1B6823F0F8027B685B69DB00F7
:10329C00394913430B603AE07B681B69002B20D043
:1032AC00364B01221A60FEF79DF9386108E0FEF7F3
:1032BC0099F902463B69D31A022B01D90323A1E1E8
:1032CC002D4B1B6803F00203002BF0D02A4B1B681C
:1032DC0023F0F8027B685B69DB00274913430B6022
:1032EC0015E0264B00221A60FEF77CF9386108E0E5
:1032FC00FEF778F902463B69D31A022B01D9032356
:10330C0080E11D4B1B6803F00203002BF0D17B689E
:10331C001B6803F00803002B3AD07B689B69002BD9
:10332C0019D0174B01221A60FEF75CF9386108E0DE
:10333C00FEF758F902463B69D31A022B01D9032335
:10334C0060E10D4B5B6A03F00203002BF0D001200F
:10335C0000F0CEFA1CE00A4B00221A60FEF742F98C
:10336C0038610FE0FEF73EF902463B69D31A022B97
:10337C0008D9032346E100BF00100240000042427E
:10338C0080044242924B5B6A03F00203002BE9D1AA
:10339C007B681B6803F00403002B00F0A68000235D
:1033AC00FB758B4BDB6903F08053002B0DD1884BE5
:1033BC00DB69874A43F08053D361854BDB6903F0AB
:1033CC008053BB60BB680123FB75824B1B6803F405
:1033DC008073002B18D17F4B1B687E4A43F480739B
:1033EC001360FEF7FFF8386108E0FEF7FBF80246C1
:1033FC003B69D31A642B01D9032303E1754B1B687A
:10340C0003F48073002BF0D07B68DB68012B06D1B2
:10341C006F4B1B6A6E4A43F0010313622DE07B680D
:10342C00DB68002B0CD16A4B1B6A694A23F0010341
:10343C001362674B1B6A664A23F0040313621CE099
:10344C007B68DB68052B0CD1614B1B6A604A43F02F
:10345C00040313625E4B1B6A5D4A43F00103136263
:10346C000BE05B4B1B6A5A4A23F001031362584B67
:10347C001B6A574A23F0040313627B68DB68002B3A
:10348C0015D0FEF7AFF838610AE0FEF7ABF802464C
:10349C003B69D31A41F28832934201D90323B1E03C
:1034AC004B4B1B6A03F00203002BEED014E0FEF72B
:1034BC0099F838610AE0FEF795F802463B69D31A91
:1034CC0041F28832934201D903239BE0404B1B6AA3
:1034DC0003F00203002BEED1FB7D012B05D13C4BFD
:1034EC00DB693B4A23F08053D3617B68DB69002B9B
:1034FC0000F08780364B5B6803F00C03082B61D01F
:10350C007B68DB69022B46D1334B00221A60FEF735
:10351C0069F8386108E0FEF765F802463B69D31A92
:10352C00022B01D903236DE0294B1B6803F00073B8
:10353C00002BF0D17B681B6AB3F5803F08D1244B7C
:10354C005B6823F400327B689B68214913434B6012
:10355C001F4B5B6823F474127B68196A7B685B6A87
:10356C000B431B4913434B601B4B01221A60FEF7A4
:10357C0039F8386108E0FEF735F802463B69D31A92
:10358C00022B01D903233DE0114B1B6803F00073A0
:10359C00002BF0D035E0104B00221A60FEF722F819
:1035AC00386108E0FEF71EF802463B69D31A022B7D
:1035BC0001D9032326E0064B1B6803F00073002B94
:1035CC00F0D11EE07B68DB69012B07D1012319E0E8
:1035DC000010024000700040600042420B4B5B68E0
:1035EC00FB60FB6803F480327B681B6A9A4206D14D
:1035FC00FB6803F470127B685B6A9A4201D001236A
:10360C0000E0002318461837BD4680BD001002406C
:10361C0080B584B000AF786039607B68002B01D135
:10362C000123D0E06A4B1B6803F007033A689A4207
:10363C0010D9674B1B6823F0070265493B6813439D
:10364C000B60634B1B6803F007033A689A4201D086
:10365C000123B8E07B681B6803F00203002B20D029
:10366C007B681B6803F00403002B05D0594B5B6887
:10367C00584A43F4E06353607B681B6803F008030B
:10368C00002B05D0534B5B68524A43F46053536094
:10369C00504B5B6823F0F0027B689B684D491343E9
:1036AC004B607B681B6803F00103002B40D07B68E8
:1036BC005B68012B07D1474B1B6803F40033002BCD
:1036CC0015D101237FE07B685B68022B07D1414B4E
:1036DC001B6803F00073002B09D1012373E03D4BF1
:1036EC001B6803F00203002B01D101236BE0394B63
:1036FC005B6823F003027B685B68364913434B60BD
:10370C00FDF770FFF8600AE0FDF76CFF0246FB68FE
:10371C00D31A41F28832934201D9032353E02D4B43
:10372C005B6803F00C027B685B689B009A42EBD1F0
:10373C00274B1B6803F007033A689A4210D2244BBC
:10374C001B6823F0070222493B6813430B60204B94
:10375C001B6803F007033A689A4201D0012332E058
:10376C007B681B6803F00403002B08D0194B5B68C3
:10377C0023F4E0627B68DB68164913434B607B687B
:10378C001B6803F00803002B09D0124B5B6823F471
:10379C0060527B681B69DB000E4913434B6000F0E1
:1037AC0021F802460B4B5B681B0903F00F030A4917
:1037BC00CB5C22FA03F3094A1360094B1B681846C9
:1037CC00FDF7CEFE002318461037BD4680BD00BF66
:1037DC000020024000100240004600080C000020AF
:1037EC001000002080B487B000AF0023FB600023E2
:1037FC00BB6000237B6100237B6000233B611E4B7D
:10380C005B68FB60FB6803F00C03042B02D0082BF5
:10381C0003D027E0194B3B6127E0FB689B0C03F0BE
:10382C000F03174AD35C7B60FB6803F48033002BD7
:10383C0010D0114B5B685B0C03F00103114AD35C95
:10384C00BB607B680D4A03FB02F2BB68B2FBF3F36F
:10385C007B6104E07B680C4A02FB03F37B617B69B0
:10386C003B6102E0054B3B6100BF3B6918461C37CE
:10387C00BD4680BC704700BF0010024000127A00A9
:10388C00184600082846000800093D0080B400AF27
:10389C00024B1B681846BD4680BC70470C000020CC
:1038AC0080B500AFFFF7F2FF0246054B5B681B0AC1
:1038BC0003F007030349CB5C22FA03F3184680BDDF
:1038CC00001002401046000880B500AFFFF7DEFF85
:1038DC000246054B5B68DB0A03F007030349CB5C2C
:1038EC0022FA03F3184680BD00100240104600086F
:1038FC0080B485B000AF78600A4B1B680A4AA2FB03
:10390C0003235B0A7A6802FB03F3FB6000BFFB68CE
:10391C005A1EFA60002BF9D100BF00BF1437BD4608
:10392C0080BC70470C000020D34D621080B582B073
:10393C0000AF78607B68002B01D1012342E07B68EB
:10394C0093F84130DBB2002B06D17B68002283F860
:10395C0040207868FDF738FD7B68242283F84120ED
:10396C007B681B68DA687B681B6822F40052DA609B
:10397C00786800F0D5FC7B681B681A697B681B684B
:10398C0022F490421A617B681B685A697B681B6839
:10399C0022F02A025A617B681B68DA687B681B6814
:1039AC0042F40052DA607B6800225A647B68202261
:1039BC0083F841207B68202283F842207B68002218
:1039CC005A63002318460837BD4680BD80B584B0C5
:1039DC0000AFF860B9601346FB80FB6893F8423087
:1039EC00DBB2202B12D1BB68002B02D0FB88002B42
:1039FC0001D101230BE0FB6800221A63FB881A46F5
:103A0C00B968F86800F0B7FA034600E002231846DC
:103A1C001037BD4680BD000080B5BAB000AF7860ED
:103A2C007B681B681B68C7F8E4307B681B68DB6825
:103A3C00C7F8E0307B681B685B69C7F8DC30002393
:103A4C00C7F8D8300023C7F8D430D7F8E43003F0E7
:103A5C000F03C7F8D830D7F8D830002B0FD1D7F8D0
:103A6C00E43003F02003002B09D0D7F8E03003F04A
:103A7C002003002B03D0786800F093FB5BE2D7F8AF
:103A8C00D830002B00F0DE80D7F8DC3003F00103D7
:103A9C00002B06D1D7F8E03003F49073002B00F024
:103AAC00D180D7F8E43003F00103002B0BD0D7F80A
:103ABC00E03003F48073002B05D07B685B6C43F023
:103ACC0001027B685A64D7F8E43003F00403002B3E
:103ADC000BD0D7F8DC3003F00103002B05D07B684A
:103AEC005B6C43F002027B685A64D7F8E43003F055
:103AFC000203002B0BD0D7F8DC3003F00103002BB2
:103B0C0005D07B685B6C43F004027B685A64D7F881
:103B1C00E43003F00803002B11D0D7F8E03003F0A9
:103B2C002003002B05D1D7F8DC3003F00103002B68
:103B3C0005D07B685B6C43F008027B685A647B6839
:103B4C005B6C002B00F0F281D7F8E43003F020031B
:103B5C00002B08D0D7F8E03003F02003002B02D064
:103B6C00786800F01EFB7B681B685B6903F0400300
:103B7C00002B14BF01230023DBB2C7F8D4307B68C1
:103B8C005B6C03F00803002B03D1D7F8D430002B67
:103B9C004FD0786800F028FA7B681B685B6903F0EB
:103BAC004003002B41D07B681B681433C7F89C3052
:103BBC00D7F89C3053E8003FC7F89830D7F89830C6
:103BCC0023F04003C7F8D0307B681B681433D7F858
:103BDC00D020C7F8A820C7F8A430D7F8A410D7F87D
:103BEC00A82041E80023C7F8A030D7F8A030002B5C
:103BFC00D9D17B68DB6B002B13D07B68DB6B7E4AE7
:103C0C005A637B68DB6B1846FDF762FE0346002B9C
:103C1C0016D07B68DB6B5B6B7A68D26B104698476F
:103C2C000EE0786800F093F90AE0786800F08FF9FC
:103C3C0006E0786800F08BF97B6800225A6475E125
:103C4C0000BF73E17B681B6B012B40F04F81D7F8F1
:103C5C00E43003F01003002B00F04881D7F8E0307B
:103C6C0003F01003002B00F041810023BB607B6844
:103C7C001B681B68BB607B681B685B68BB60BB68B0
:103C8C007B681B685B6903F04003002B00F0B68077
:103C9C007B68DB6B1B685B68A7F8BE30B7F8BE307F
:103CAC00002B00F045817B689B8DB7F8BE209A42B3
:103CBC0080F03E817B68B7F8BE20DA857B68DB6BD1
:103CCC009B69202B00F088807B681B680C33C7F83D
:103CDC008830D7F8883053E8003FC7F88430D7F8DD
:103CEC00843023F48073C7F8B8307B681B680C33BE
:103CFC00D7F8B820C7F89420C7F89030D7F89010B0
:103D0C00D7F8942041E80023C7F88C30D7F88C30D2
:103D1C00002BD9D17B681B6814337B677B6F53E80E
:103D2C00003F3B673B6F23F00103C7F8B4307B685F
:103D3C001B681433D7F8B420C7F88020FB67F96FE1
:103D4C00D7F8802041E80023BB67BB6F002BE1D183
:103D5C007B681B6814333B663B6E53E8003FFB6586
:103D6C00FB6D23F04003C7F8B0307B681B6814333D
:103D7C00D7F8B020FA66BB66B96EFA6E41E800233C
:103D8C007B667B6E002BE3D17B68202283F842207C
:103D9C007B6800221A637B681B680C33FB64FB6C2A
:103DAC0053E8003FBB64BB6C23F01003C7F8AC3086
:103DBC007B681B680C33D7F8AC20BA657B65796DD2
:103DCC00BA6D41E800233B653B6D002BE3D17B686A
:103DDC00DB6B1846FDF741FD7B6802225A637B685A
:103DEC009A8D7B68DB8D9BB2D31A9BB2194678688F
:103DFC0000F0B6F89CE000BFB94000087B689A8DD3
:103E0C007B68DB8D9BB2D31AA7F8CE307B68DB8D39
:103E1C009BB2002B00F08E80B7F8CE30002B00F058
:103E2C0089807B681B680C33BB63BB6B53E8003F1A
:103E3C007B637B6B23F49073C7F8C8307B681B687B
:103E4C000C33D7F8C8207A643B64396C7A6C41E83F
:103E5C000023FB63FB6B002BE3D17B681B681433E3
:103E6C007B627B6A53E8003F3B623B6A23F00103B1
:103E7C00C7F8C4307B681B681433D7F8C4203A6386
:103E8C00FB62F96A3A6B41E80023BB62BB6A002B08
:103E9C00E3D17B68202283F842207B6800221A63DE
:103EAC007B681B680C333B613B6953E8003FFB604C
:103EBC00FB6823F01003C7F8C0307B681B680C3319
:103ECC00D7F8C020FA61BB61B969FA6941E80023EF
:103EDC007B617B69002BE3D17B6802225A63B7F8C4
:103EEC00CE301946786800F03BF823E0D7F8E43080
:103EFC0003F08003002B09D0D7F8E03003F08003E7
:103F0C00002B03D0786800F0E5F814E0D7F8E43023
:103F1C0003F04003002B0ED0D7F8E03003F0400341
:103F2C00002B08D0786800F024F904E000BF02E010
:103F3C0000BF00E000BFE837BD4680BD80B483B051
:103F4C0000AF786000BF0C37BD4680BC704780B4B2
:103F5C0083B000AF786000BF0C37BD4680BC7047A3
:103F6C0080B483B000AF78600B467B8000BF0C3709
:103F7C00BD4680BC704780B485B000AFF860B960B6
:103F8C001346FB80FB68BA689A62FB68FA889A85CC
:103F9C00FB68FA88DA85FB6800225A64FB682222E7
:103FAC0083F84220FB681B69002B07D0FB681B6859
:103FBC00DA68FB681B6842F48072DA60FB681B6885
:103FCC005A69FB681B6842F001025A61FB681B6866
:103FDC00DA68FB681B6842F02002DA60002318469E
:103FEC001437BD4680BC704780B495B000AF786084
:103FFC007B681B680C337B637B6B53E8003F3B6334
:10400C003B6B23F49073FB647B681B680C33FA6C7A
:10401C003A64FB63F96B3A6C41E80023BB63BB6BFE
:10402C00002BE5D17B681B6814333B623B6A53E879
:10403C00003FFB61FB6923F00103BB647B681B68D9
:10404C001433BA6CFA62BB62B96AFA6A41E80023AB
:10405C007B627B6A002BE5D17B681B6B012B19D132
:10406C007B681B680C33FB60FB6853E8003FBB604C
:10407C00BB6823F010037B647B681B680C337A6C81
:10408C00BA617B617969BA6941E800233B613B699C
:10409C00002BE5D17B68202283F842207B6800222C
:1040AC001A6300BF5437BD4680BC704780B584B0DE
:1040BC0000AF78607B685B6AFB60FB680022DA8586
:1040CC00FB680022DA84F868FFF741FF00BF103765
:1040DC00BD4680BD80B485B000AF78607B6893F836
:1040EC004130DBB2212B3ED17B689B68B3F5805FFE
:1040FC0014D17B681B69002B10D17B681B6AFB6099
:10410C00FB681B881A467B681B68C2F308025A605E
:10411C007B681B6A9A1C7B681A6208E07B681B6AC6
:10412C00591C7A6811621A787B681B685A607B6824
:10413C00DB8C9BB2013B9BB27A681946D184002B75
:10414C000FD17B681B68DA687B681B6822F08002E1
:10415C00DA607B681B68DA687B681B6842F0400297
:10416C00DA60002300E0022318461437BD4680BCF9
:10417C00704780B582B000AF78607B681B68DA68E6
:10418C007B681B6822F04002DA607B68202283F88F
:10419C0041207868FFF7D2FE002318460837BD4649
:1041AC0080BD80B58CB000AF78607B6893F84230EE
:1041BC00DBB2222B40F0AE807B689B68B3F5805F4E
:1041CC0017D17B681B69002B13D10023FB627B6822
:1041DC009B6ABB627B681B685B689BB2C3F308037A
:1041EC009AB2BB6A1A807B689B6A9A1C7B689A623B
:1041FC0026E07B689B6AFB620023BB627B689B6842
:10420C00B3F5805F07D07B689B68002B0AD17B6875
:10421C001B69002B06D17B681B685B68DAB2FB6AF2
:10422C001A7008E07B681B685B68DBB203F07F03E5
:10423C00DAB2FB6A1A707B689B6A5A1C7B689A62BA
:10424C007B68DB8D9BB2013B9BB27A681946D185AA
:10425C00002B5DD17B681B68DA687B681B6822F0D9
:10426C002002DA607B681B68DA687B681B6822F4C2
:10427C008072DA607B681B685A697B681B6822F065
:10428C0001025A617B68202283F842207B6800225D
:10429C005A637B681B6B012B35D17B6800221A6338
:1042AC007B681B680C337B617B6953E8003F3B6187
:1042BC003B6923F010037B627B681B680C337A6AC2
:1042CC003A62FB61F9693A6A41E80023BB61BB6958
:1042DC00002BE5D17B681B681B6803F01003102BC7
:1042EC000AD10023FB607B681B681B68FB607B6842
:1042FC001B685B68FB60FB687B689B8D1946786864
:10430C00FFF72EFE02E07868FCF75CFF002302E06A
:10431C00002300E0022318463037BD4680BD000064
:10432C0080B584B000AF78607B681B681B6923F490
:10433C0040517B68DA687B681B680A431A617B68AA
:10434C009A687B681B691A437B685B691343BB6083
:10435C007B681B68DB6823F4B05323F00C037A688A
:10436C001268B9680B43D3607B681B685B6923F4E4
:10437C0040717B689A697B681B680A435A617B6849
:10438C001B682C4A934203D1FFF79EFAF86002E0B7
:10439C00FFF786FAF860FA6813469B0013449A00FC
:1043AC001A447B685B689B00B2FBF3F3224AA2FBC6
:1043BC0003235B091901FA6813469B0013449A0006
:1043CC001A447B685B689B00B2FBF3F21A4BA3FBAD
:1043DC0002035B09642000FB03F3D31A1B01323385
:1043EC00154AA2FB03235B0903F0F0031944FA6896
:1043FC0013469B0013449A001A447B685B689B002D
:10440C00B2FBF3F20C4BA3FB02035B09642000FB31
:10441C0003F3D31A1B013233074AA2FB03235B09B4
:10442C0003F00F027B681B680A449A6000BF1037C8
:10443C00BD4680BD003801401F85EB510346024448
:10444C00934200D1704703F8011BF9E770B50026C1
:10445C000C4D0D4C641BA410A64209D100F01AF8A7
:10446C0000260A4D0A4C641BA410A64205D170BD4F
:10447C0055F8043B98470136EEE755F8043B98474E
:10448C000136F2E72C4600082C4600082C460008A2
:10449C0030460008F8B500BFF8BC08BC9E46704713
:0C44AC00F8B500BFF8BC08BC9E46704785
:1044B80020414C52454144592045584953542021E4
:1044C80021000000204E4F542045584953542021C4
:1044D80021000000202050415353574F5244000000
:1044E8002020535543434553532021210000000009
:1044F8004F50454E2054484520444F4F520000002D
:1045080020204641494C454420212100444953413B
:10451800424C450053455454494E473A20312E5099
:10452800415353574F524400202020202020202060
:1045380020322E46494E4745525052494E540000AB
:10454800312E20414444205041535300322E204400
:10455800454C455445205041535300004E45572083
:1045680050415353574F52440000000020545259B1
:1045780020414741494E2021210000002053554346
:10458800434553532021210020554E53554343455D
:1045980053532021210000004F4C442050415353D5
:1045A800574F524400000000312E20414444204619
:1045B800494E4745525052494E540000322E20442D
:1045C800454C4554452046494E4745525052494E60
:1045D800540000004E45572046494E474552505218
:1045E800494E54004F50454E20444F4F5200000052
:1045F8004641494C555245000000000000000000AB
:104608000102030406070809000000000102030470
:1046180002030405060708090A0B0C0D0E0F1010FB
:04462800010200008B
:04462C003101000850
:044630000D01000870
:104634003132333435363738392A30230024F40004
:0846440010000000010000005D
:04000005080014F5E6
:00000001FF
